:020000040800F2
:10000000B80A00204D020008D54B00083F4B0008FD
:10001000D14B0008630300085F5700080000000090
:10002000000000000000000000000000E95000088F
:100030004105000800000000114C00083151000883
:1000400067020008670200086702000867020008EC
:1000500067020008670200084305000867020008FD
:1000600067020008670200086702000867020008CC
:1000700067020008670200086702000867020008BC
:1000800067020008670200086702000867020008AC
:10009000670200086702000867020008670200089C
:1000A000670200086702000867020008670200088C
:1000B0006702000821520008670200086702000872
:1000C000670200086702000867020008454D000843
:1000D000670200086702000867020008670200085C
:1000E000670200086702000867020008670200084C
:1000F000670200086702000867020008670200083C
:10010000670200086702000867020008670200082B
:10011000670200086702000867020008670200081B
:10012000E1040008F1040008010500086702000866
:1001300067020008670200086702000867020008FB
:1001400067020008670200086702000867020008EB
:10015000670200086702000811050008670200082E
:1001600067020008670200086702000867020008CB
:10017000670200086702000867020008000000002C
:1001800067020008670200086702000867020008AB
:10019000670200086702000867020008670200089B
:1001A00067020008670200086702000800F002F812
:1001B00000F03CF80AA090E8000C82448344AAF1C5
:1001C0000107DA4501D100F031F8AFF2090EBAE8C3
:1001D0000F0013F0010F18BFFB1A43F0010318477B
:1001E000E46C0000046D0000103A24BF78C878C1A8
:1001F000FAD8520724BF30C830C144BF04680C602D
:10020000704700000023002400250026103A28BF74
:1002100078C1FBD8520728BF30C148BF0B60704778
:100220001FB505F0FBFA1FBD10B510BD00F063F857
:100230001146FFF7F5FF05F095FA00F081F803B4D9
:10024000FFF7F2FF03BC00F085F800000948804783
:1002500009480047FEE7FEE7FEE7FEE7FEE7FEE7A8
:10026000FEE7FEE7FEE7FEE704480549054A064BC0
:1002700070470000BD510008AD010008B80400201F
:10028000B80A0020B8060020B806002010B5203AB1
:10029000C0F00B80B1E81850203AA0E81850B1E83F
:1002A0001850A0E81850BFF4F5AF5FEA027C24BFF5
:1002B000B1E81850A0E8185044BF18C918C0BDE8EC
:1002C00010405FEA827C24BF51F8043B40F8043BB5
:1002D00008BF7047D20728BF31F8023B48BF11F86A
:1002E000012B28BF20F8023B48BF00F8012B7047C4
:1002F000704770477047754600F028F8AE46050015
:100300006946534620F00700854618B020B5FFF730
:10031000ABFFBDE820404FF000064FF000074FF064
:1003200000084FF0000B21F00701AC46ACE8C00913
:10033000ACE8C009ACE8C009ACE8C0098D4670471C
:100340000446AFF300802046FFF779FF004870476E
:100350005404002001491820ABBEFEE7260002002D
:10036000704700BFFEE7000038B54FF443743148D2
:10037000006840F001002F4908604FF4C0502E493A
:100380000860012048600320C860002088602B4876
:1003900002F004FF01224FF4C051284803F00AF88C
:1003A0002748284908604FF482704860002125489A
:1003B0008160C16002210161002141614FF400713F
:1003C00081610821C16100210162416281620721CE
:1003D000C16203F05EFD08B100F0B8F807E01A480A
:1003E00000231A4680210090164800F04FF8164866
:1003F00080781549497840EA0120B0F54F7FEED169
:10040000114823460022114600900E4800F03EF8A5
:1004100000BF0D4800231A4680210090094800F0D3
:1004200035F8094880780849497840EA0120A04217
:10043000EFD138BD303802406C020020000002408D
:1004400000340140580300201C0000202DE9F04139
:1004500005460E4617461C4646EA0700094908703D
:10046000201248708C7000221021074802F0A2FF71
:1004700003220449284603F0DBFF0020296C0864AE
:10048000BDE8F08138000020001002402DE9F04165
:1004900007460D4616461C46DDF8188000BF384654
:1004A00003F074FC0128FAD145EA06000A490870F5
:1004B000201248708C7000221021084802F07AFF48
:1004C000032342460449384603F00EFF08B100F00A
:1004D0003DF80020BDE8F0812D0000200010024012
:1004E00010B50249486C00F06FFA10BD58030020A7
:1004F00010B50249086C00F067FA10BD58030020DF
:1005000010B50249486C00F05FFA10BDAC03002042
:1005100010B50249086B00F057FA10BD0004002026
:1005200010B5046863608468402C04D10468A2603C
:100530000468E16003E00468A1600468E26010BD43
:10054000704710B5012002F01BFE10BD0122802172
:10055000044802F02FFF392103A004F051FF00BF2F
:10056000FEE70000000402401B5B33316D457272F0
:100570006F723A20556E6B6F776E206572726F7274
:1005800020686173206361757365642074686520F9
:1005900073797374656D20746F2073746F70210D9F
:1005A0000A00000030B50446B3F5804F16D1D1E9FA
:1005B000000540EA05108D6840EA05208D8940EA73
:1005C0000545088A401E45EA0055087D801E45EA1B
:1005D00000608D69284344F8220003E06FF070400A
:1005E00044F82200002030BD10B502460023D1E9B6
:1005F00001042043CC6820430C6920434C6920430C
:100600008C692043CC6920430C6A20434C6A204308
:100610008C6A2043CC6A20430C6B20434C6B40EA2D
:1006200004038868082801D143F04003086842F8B1
:100630002030486BB0F5801F0AD1086840B14FF4F4
:10064000807008614C6B0869204314682043106077
:10065000002010BD30B5034614460022D1E9000544
:1006600040EA05108D6840EA05208D8940EA05457D
:10067000088A401E45EA0055087D801E45EA006054
:100680008D6940EA0502601C43F82020186810F4C8
:10069000801F07D0586820F47002088A401E42EA82
:1006A00000525A60002030BD024652F8210040F44A
:1006B000805042F8210000207047000010B5022051
:1006C000644948600C2008610320C86000208860ED
:1006D0006148006840F008005F4908604DF63370DB
:1006E0005C4908605D4802F059FD5B48006840F0D5
:1006F0001000594908604FF6837056490860584801
:1007000002F04CFD5448006840F020005249086057
:100710004FF23F004F490860524802F03FFD4E48FB
:10072000006840F040004C49086040F23F404949B1
:1007300008604D4802F032FD47480830006840F03C
:10074000010045490831086004204849086000203C
:10075000486088601020C860002008614861886196
:10076000C8614FF480500862002048628862C86205
:100770000863486338223E48FFF788FD4FF0204069
:100780003B490839086001203A4908600020486068
:10079000022088600020C8600861486188610A46BC
:1007A0003348083803F0DBFE08B1FFF7CFFE3048CE
:1007B000083803F0FEFE00202F49086010E02E48A4
:1007C000008841F65A61084481B22B480068400015
:1007D00000F1D040018028480068401C264908608C
:1007E00025480068B0F5002FE9D3002022490860B1
:1007F00014E021480068400000F1D04000881E4904
:10080000098841F65A62114489B2884201D0FFF743
:100810009DFE19480068401C17490860164800688A
:10082000B0F5002FE5D30020134908600BE000214C
:1008300011480068400000F1D04001800E48006877
:10084000401C0D4908600C480068B0F5002FEED33D
:1008500010BD00006C02002030380240000C024045
:10086000001002400014024000180240C80200209C
:1008700088020020000300201800002010B51C484A
:10088000006840F002001A49086080201949086099
:10089000012048600320C86000208860164802F0EC
:1008A0007DFC00228021144802F084FD104800687D
:1008B00040F080000E4908604FF440400D49086048
:1008C000012048600320C860002088600B4802F0C7
:1008D00065FC4FF400500749086000204860032081
:1008E000C86001208860054802F058FC10BD000077
:1008F000303802406C02002000040240001C02401C
:100900003CB5034647F23054A24205DD009C1C6012
:10091000BDF804409C803CBD01EB4104114D05EB4A
:100920008404A468A01C062404FB020424788DF827
:100930000540062404FB020464788DF80440062474
:1009400004FB02046488ADF80040062404FB0204A2
:10095000A488ADF80240009C1C60BDF804409C8057
:1009600000BFD8E73C04002070B50446002520688D
:10097000006820F001002168086002F021FD0546B2
:1009800012E002F01DFD401BB0F57A7F0CD9E06C3F
:1009900040F02000E06400BF002084F8340000BF75
:1009A000032084F8350070BD2068006810F0010F46
:1009B000E7D100BF002084F8340000BF012084F894
:1009C00035000020EFE7000010B50446F949206823
:1009D00088425DD9F74854380068F74A2168914247
:1009E00001D1082152E0F34A483A2168914201D1ED
:1009F00008214BE0F04A60322168914201D1082180
:100A000044E0EC4A18322168914201D108213DE0CE
:100A1000E94A18322168914201D1491536E0E54A88
:100A2000303A2168914201D149152FE0E24A7832EB
:100A30002168914201D1491528E0DE4A303221680F
:100A4000914201D1491521E0DB4A303221689142BF
:100A500002D14FF4002119E0D64A183A2168914298
:100A600002D14FF4002111E0D34A90322168914223
:100A700002D14FF4002109E0CE4A48322168914268
:100A800002D14FF4002101E04FF00071084022E153
:100A9000C949A831206888425DD9C64858380068DD
:100AA000C54A2168914201D1082152E0C14A483A21
:100AB0002168914201D108214BE0BF4A6032216890
:100AC000914201D1082144E0BA4A1832216891428A
:100AD00001D108213DE0B84A18322168914201D184
:100AE000491536E0B34A303A2168914201D149159F
:100AF0002FE0B14A78322168914201D1491528E0AE
:100B0000AC4A30322168914201D1491521E0AA4A0C
:100B100030322168914202D14FF4002119E0A54AF8
:100B2000183A2168914202D14FF4002111E0A24A03
:100B300090322168914202D14FF4002109E09D4A90
:100B400048322168914202D14FF4002101E04FF078
:100B500000710840BFE098494831206888425DD95B
:100B6000954810384068944A2168914201D1082183
:100B700052E0904A483A2168914201D108214BE065
:100B80008D4A60322168914201D1082144E0894AAE
:100B900018322168914201D108213DE0864A18327D
:100BA0002168914201D1491536E0824A303A2168E4
:100BB000914201D149152FE07F4A78322168914254
:100BC00001D1491528E07B4A30322168914201D198
:100BD000491521E0784A30322168914202D14FF420
:100BE000002119E0734A183A2168914202D14FF46A
:100BF000002111E0704A90322168914202D14FF4F5
:100C0000002109E06B4A48322168914202D14FF439
:100C1000002101E04FF0007108405CE066481038A8
:100C20000068654A2168914201D1082152E0614A79
:100C3000483A2168914201D108214BE05E4A603276
:100C40002168914201D1082144E05A4A18322168B2
:100C5000914201D108213DE0574A18322168914262
:100C600001D1491536E0534A303A2168914201D109
:100C700049152FE0504A78322168914201D1491537
:100C800028E04C4A30322168914201D1491521E0D7
:100C9000494A30322168914202D14FF4002119E0D3
:100CA000444A183A2168914202D14FF4002111E0E0
:100CB000414A90322168914202D14FF4002109E06B
:100CC0003C4A48322168914202D14FF4002101E0B0
:100CD0004FF00071084000286BD02068006810F0C9
:100CE000040FF9D02068006820F004002168086033
:100CF00030492068884261D92F492068884201D153
:100D0000082052E02B4948392068884201D1082048
:100D10004BE0294960312068884201D1082044E035
:100D2000244918312068884201D108203DE0224939
:100D300018312068884201D1401536E01D4930390C
:100D40002068884201D140152FE01B497831206886
:100D5000884201D1401528E0164930312068884288
:100D600001D1401521E0144930312068884202D178
:100D70004FF4002019E00F4918392068884202D149
:100D80004FF4002011E00C4990312068884202D1D4
:100D90004FF4002009E0074948312068884202D119
:100DA0004FF4002001E04FF0007002494C39086018
:100DB00023E133E15864024010600240F8492068A2
:100DC00088425CD9F649A8392068884201D10820B8
:100DD00051E0F4492068884201D108204BE0F049F5
:100DE00048392068884201D1082044E0ED4960314B
:100DF0002068884201D108203DE0E9499039206807
:100E0000884201D1401536E0E64918312068884211
:100E100001D140152FE0E24930392068884201D1E4
:100E2000401528E0DF4978312068884201D140151B
:100E300021E0DB4978392068884202D14FF4002054
:100E400019E0D84930312068884202D14FF400209F
:100E500011E0D34918392068884202D14FF40020AC
:100E600009E0D04990312068884202D14FF4002037
:100E700001E04FF00070CB4908390860BDE0C84977
:100E80006039206888425CD9C549A8392068884201
:100E900001D1082051E0C3492068884201D10820CF
:100EA0004BE0BF4948392068884201D1082044E01E
:100EB000BC4960312068884201D108203DE0B84932
:100EC00090392068884201D1401536E0B549183183
:100ED0002068884201D140152FE0B149303920689F
:100EE000884201D1401528E0AE4978312068884217
:100EF00001D1401521E0AA4978392068884202D101
:100F00004FF4002019E0A74930312068884202D10F
:100F10004FF4002011E0A24918392068884202D11C
:100F20004FF4002009E09F4990312068884202D1A7
:100F30004FF4002001E04FF000709949B839C860C3
:100F40005BE09749A8392068884201D1082051E028
:100F500094492068884201D108204BE090494839E3
:100F60002068884201D1082044E08E496031206821
:100F7000884201D108203DE08949903920688842A3
:100F800001D1401536E0874918312068884201D1E7
:100F900040152FE0824930392068884201D1401540
:100FA00028E0804978312068884201D1401521E04D
:100FB0007B4978392068884202D14FF4002019E03B
:100FC000784930312068884202D14FF4002011E086
:100FD000734918392068884202D14FF4002009E093
:100FE000704990312068884202D14FF4002001E01E
:100FF0004FF000706A49B8398860E06C40F0010039
:10100000E064042084F8350000BF002084F8340038
:1010100000BFA06C10B12046A16C884761494831DF
:10102000206888425DD95F480C3800685C4AA83A5D
:101030002168914201D15C4951E05A4A21689142AC
:1010400001D159494BE0564A483A2168914201D1B1
:10105000554944E0534A60322168914201D15249D6
:101060003DE04F4A903A2168914201D1402136E05B
:101070004C4A18322168914201D140212FE0484A60
:10108000303A2168914201D1402128E0454A783226
:101090002168914201D1402121E0414A783A2168FA
:1010A000914202D14FF4803119E03E4A303221683A
:1010B000914202D14FF4803111E0394A183A216847
:1010C000914202D14FF4803109E0364A90322168D2
:1010D000914202D14FF4803101E04FF48001084089
:1010E00027E12F492068884264D92E4810380068CB
:1010F0002B4AA83A2168914201D12B4958E0294A4C
:101100002168914201D1284952E0254A483A216894
:10111000914201D124494BE0224A60322168914238
:1011200001D1214944E01E4A903A2168914201D1FF
:1011300040213DE01B4A18322168914201D14021F3
:1011400036E0174A303A2168914201D140212FE020
:10115000144A78322168914201D1402128E0104A96
:10116000783A2168914202D14FF4803120E00D4A53
:1011700030322168914202D14FF4803118E0084AA0
:10118000183A2168914202D14FF4803110E0054AAB
:1011900090322168914209D14FF4803108E009E092
:1011A000B860024010640240010080004FF48001EA
:1011B0000840BEE0F849206888425DD9F6485838B2
:1011C0004068F54A483A2168914201D1F34951E01B
:1011D000F34A2168914201D1F0494BE0EE4A1832BE
:1011E0002168914201D1ED4944E0ED4A6032216825
:1011F000914201D1E9493DE0E74A303A2168914204
:1012000001D1402136E0E64A18322168914201D1ED
:1012100040212FE0E04A30322168914201D1402143
:1012200028E0DF4A78322168914201D1402121E053
:10123000D94A183A2168914202D14FF4803119E01D
:10124000D74A30322168914202D14FF4803111E007
:10125000D14A48322168914202D14FF4803109E0ED
:10126000CF4A90322168914202D14FF4803101E09F
:101270004FF4800108405CE0C74858380068C64A0F
:10128000483A2168914201D1C44951E0C44A2168D9
:10129000914201D1C1494BE0BF4A183221689142C5
:1012A00001D1BE4944E0BE4A60322168914201D179
:1012B000BA493DE0B84A303A2168914201D1402113
:1012C00036E0B74A18322168914201D140212FE01F
:1012D000B14A30322168914201D1402128E0B04A20
:1012E00078322168914201D1402121E0AA4A183A7E
:1012F0002168914202D14FF4803119E0A84A30327E
:101300002168914202D14FF4803111E0A24A483263
:101310002168914202D14FF4803109E0A04A903215
:101320002168914202D14FF4803101E04FF48001F5
:101330000840002878D02068406910F0800F73D0F2
:101340002068406920F08000216848619449483154
:10135000206888425CD9904948392068884201D188
:101360008E4851E08E492068884201D18B484BE07D
:10137000894918312068884201D1884844E0884969
:1013800060312068884201D184483DE0824930398B
:101390002068884201D1402036E081491831206818
:1013A000884201D140202FE07B49303120688842BB
:1013B00001D1402028E07A4978312068884201D163
:1013C000402021E0744918392068884202D14FF446
:1013D000803019E0724930312068884202D14FF4E0
:1013E000803011E06C4948312068884202D14FF4C6
:1013F000803009E06A4990312068884202D14FF478
:10140000803001E04FF480006549091F086024E145
:1014100061496031206888425DD95F494839206858
:10142000884202D15D4852E028E15D492068884247
:1014300001D15A484BE0584918312068884201D1FF
:10144000564844E0564960312068884201D15348EB
:101450003DE0514930392068884201D1402036E0D2
:101460004F4918312068884201D140202FE04A4975
:1014700030312068884201D1402028E04849783145
:101480002068884201D1402021E043491839206872
:10149000884202D14FF4803019E041493031206850
:1014A000884202D14FF4803011E03B494831206836
:1014B000884202D14FF4803009E0394990312068E8
:1014C000884202D14FF4803001E04FF4800034496B
:1014D00008390860C1E030492068884262D92E4945
:1014E00048392068884201D12C4851E02C492068B5
:1014F000884201D129484BE02749183120688842A9
:1015000001D1264844E0264960312068884201D153
:1015100022483DE0204930392068884201D14020EE
:1015200036E01F4918312068884201D140202FE061
:10153000194930312068884201D1402028E01849FB
:1015400078312068884201D1402021E012491839C1
:101550002068884202D14FF4803019E010493031C0
:101560002068884202D14FF4803011E00A494831A6
:101570002068884202D14FF4803009E00849903158
:101580002068884202D14FF4803001E04FF480009F
:1015900001495839C86060E058600240010080008D
:1015A00010640240F9492068884201D1F84851E0AE
:1015B000F8492068884201D1F5484BE0F349603191
:1015C0002068884201D1F24844E0F2496031206845
:1015D000884201D1EE483DE0EC491831206888424C
:1015E00001D1402036E0EB4918312068884201D112
:1015F00040202FE0E54978312068884201D1402021
:1016000028E0E44978312068884201D1402021E077
:10161000DE4930312068884202D14FF4803019E031
:10162000DC4930312068884202D14FF4803011E02B
:10163000D64990312068884202D14FF4803009E0C9
:10164000D44990312068884202D14FF4803001E0C3
:101650004FF48000CD4910398860E06C40F0020002
:10166000E064042084F8350000BF002084F83400D2
:1016700000BFA06C10B12046A16C8847C549483115
:101680002068884260D9C3480C380068BF4A216886
:10169000914202D1BE49C91C54E0BE4A2168914220
:1016A00002D1BB49C91C4DE0B84A60322168914261
:1016B00002D1B749C91C45E0B64A6032216891425F
:1016C00002D1B349C91C3DE0B04A183221689142A9
:1016D00001D1891536E0AF4A18322168914201D113
:1016E00089152FE0A94A78322168914201D18915E4
:1016F00028E0A84A78322168914201D1891521E079
:10170000A24A30322168914202D14FF4802119E07F
:10171000A04A30322168914202D14FF4802111E079
:101720009A4A90322168914202D14FF4802109E017
:10173000984A90322168914202D14FF4802101E011
:101740004FF08071084031E19049A831206888420B
:1017500060D99048103800688C4A2168914202D1C3
:101760008B49C91C54E08B4A2168914202D18849B7
:10177000C91C4DE0854A60322168914202D18449FA
:10178000C91C45E0834A60322168914202D18049F8
:10179000C91C3DE07D4A18322168914201D189156A
:1017A00036E07C4A18322168914201D189152FE038
:1017B000764A78322168914201D1891528E0754A2C
:1017C00078322168914201D1891521E06F4A303287
:1017D0002168914202D14FF4802119E06D4A3032E4
:1017E0002168914202D14FF4802111E0674A903282
:1017F0002168914202D14FF4802109E0654A90327C
:101800002168914202D14FF4802101E04FF08071B4
:101810000840CBE05D4948312068884260D95B4888
:1018200010384068594A2168914202D15849C91C70
:1018300054E0584A2168914202D15549C91C4DE0F3
:10184000524A60322168914202D15149C91C45E097
:10185000504A60322168914202D14D49C91C3DE095
:101860004A4A18322168914201D1891536E0494A25
:1018700018322168914201D189152FE0434A78320C
:101880002168914201D1891528E0424A78322168C5
:10189000914201D1891521E03C4A303221689142C0
:1018A00002D14FF4802119E03A4A30322168914246
:1018B00002D14FF4802111E0344A903221689142E4
:1018C00002D14FF4802109E0324A903221689142DE
:1018D00002D14FF4802101E04FF08071084065E0B3
:1018E0002A4810380068294A2168914202D12849C3
:1018F000C91C5AE0274A2168914202D12449C91CD7
:1019000053E0224A60322168914202D12049C91C29
:101910004BE0204A60322168914202D11C49C91C27
:1019200043E01A4A18322168914201D189153CE0FE
:10193000184A18322168914201D1891535E0134ABD
:1019400078322168914201D189152EE0114A78320E
:101950002168914201D1891527E00C4A3032216873
:10196000914202D14FF480211FE00A4A30322168AF
:10197000914202D14FF4802117E0044A903221684D
:10198000914209D14FF480210FE000001060024025
:101990000100800010640240FA4A2168914202D19D
:1019A0004FF4802101E04FF08071084088B3206837
:1019B000006810F0020F2CD02068006820F00200B0
:1019C00021680860EF494839206888425CD9EE49AF
:1019D0002068884201D1ED4852E0EA4990392068F8
:1019E000884201D1E9484BE0E749603120688842EC
:1019F00001D1E64844E0E34930392068884201D10A
:101A0000E2483DE0E04918312068884202D1801563
:101A100036E067E1DB4978392068884201D18015DA
:101A20002EE0D94978312068884201D1801527E01D
:101A3000D44918392068884201D1801520E0D24964
:101A400030312068884202D14FF4802018E0CD491F
:101A500060392068884202D14FF4802010E0CA49E2
:101A600090312068884202D14FF4802008E0C549B7
:101A70002068884202D14FF4802001E04FF080704E
:101A8000C049943908601CE1BF49A83120688842E8
:101A90005BD9BD492068884201D1BC4851E0B949B1
:101AA00090392068884201D1B8484AE0B64960318F
:101AB0002068884201D1B54843E0B24930392068F6
:101AC000884201D1B1483CE0AF49183120688842D2
:101AD00001D1801535E0AB4978392068884201D1C1
:101AE00080152EE0A84978312068884201D1801500
:101AF00027E0A44918392068884201D1801520E0E8
:101B0000A14930312068884202D14FF4802018E08A
:101B10009C4960392068884202D14FF4802010E04F
:101B2000994990312068884202D14FF4802008E022
:101B300094492068884202D14FF4802001E04FF0A0
:101B40008070904998390860BBE08F49483120681F
:101B500088425BD98C492068884201D18B4851E08A
:101B6000884990392068884201D188484AE08649EE
:101B700060312068884201D1844843E0814930398E
:101B80002068884201D181483CE07F4918312068B3
:101B9000884201D1801535E07A4978392068884239
:101BA00001D180152EE0784978312068884201D132
:101BB000801527E0734918392068884201D18015C3
:101BC00020E0714930312068884202D14FF48020F2
:101BD00018E06C4960392068884202D14FF48020B7
:101BE00010E0694990312068884202D14FF480208A
:101BF00008E064492068884202D14FF4802001E067
:101C00004FF0807060491039C8605AE05E49206822
:101C1000884201D15D4851E05A4990392068884294
:101C200001D15A484AE0584960312068884201D1C0
:101C3000564843E0534930392068884201D153481F
:101C40003CE0514918312068884201D1801535E0C7
:101C50004C4978392068884201D180152EE04A49E4
:101C600078312068884201D1801527E0454918392C
:101C70002068884201D1801520E043493031206836
:101C8000884202D14FF4802018E03E496039206834
:101C9000884202D14FF4802010E03B499031206807
:101CA000884202D14FF4802008E0364920688842FB
:101CB00002D14FF4802001E04FF08070324910399A
:101CC0008860E06C40F00400E064042084F8350093
:101CD00000BF002084F8340000BFA06C10B1204683
:101CE000A16C8847274948392068884262D925482D
:101CF0009C380068244A2168914201D1102157E0A4
:101D0000204A903A2168914201D1102150E01E4AA8
:101D100060322168914201D1102149E0194A303ADC
:101D20002168914201D1102142E0174A18322168FE
:101D3000914201D109153BE0124A783A216891425B
:101D400001D1091534E0104A78322168914201D15D
:101D500009152DE00B4A183A2168914201D1091565
:101D600026E0094A30322168914202D14FF48011B5
:101D70001EE0044A603A2168914209D14FF4801173
:101D800016E00000A06402401060024004008000E1
:101D9000FA4A2168914202D14FF4801108E0F84AD2
:101DA0002168914202D14FF4801101E04FF080612F
:101DB00008401FE1F1491831206888425CD9F04899
:101DC000A0380068ED4A903A2168914201D1102173
:101DD00050E0EB4A903A2168914201D1102149E04C
:101DE000E64A303A2168914201D1102142E0E44AAA
:101DF000303A2168914201D110213BE0DF4A783A24
:101E00002168914201D1091534E0DD4A783A216810
:101E1000914201D109152DE0D84A183A2168914222
:101E200001D1091526E0D64A183A2168914201D11C
:101E300009151FE0D14A603A2168914202D14FF45E
:101E4000801117E0CE4A603A2168914202D14FF4E6
:101E500080110FE0C94A2168914202D14FF48011EC
:101E600008E0C74A2168914202D14FF4801101E095
:101E70004FF080610840BDE0C04948392068884281
:101E80005CD9BE48A0384068BC4A903A216891426B
:101E900001D1102150E0BA4A903A2168914201D113
:101EA000102149E0B54A303A2168914201D1102110
:101EB00042E0B34A303A2168914201D110213BE01F
:101EC000AE4A783A2168914201D1091534E0AC4A12
:101ED000783A2168914201D109152DE0A74A183AB4
:101EE0002168914201D1091526E0A54A183A2168D6
:101EF000914201D109151FE0A04A603A2168914240
:101F000002D14FF4801117E09D4A603A2168914256
:101F100002D14FF480110FE0984A2168914202D11A
:101F20004FF4801108E0964A2168914202D14FF4A3
:101F3000801101E04FF0806108405BE08F48A038DD
:101F400000688E4A903A2168914201D1102150E0F8
:101F50008B4A903A2168914201D1102149E0874A89
:101F6000303A2168914201D1102142E0844A303A4E
:101F70002168914201D110213BE0804A783A2168E2
:101F8000914201D1091534E07D4A783A21689142A5
:101F900001D109152DE0794A183A2168914201D101
:101FA000091526E0764A183A2168914201D10915AF
:101FB0001FE0724A603A2168914202D14FF48011C9
:101FC00017E06F4A603A2168914202D14FF48011C4
:101FD0000FE06A4A2168914202D14FF4801108E073
:101FE000674A2168914202D14FF4801101E04FF01D
:101FF00080610840002876D02068006810F0080F43
:1020000071D02068006810F4802F6DD05C49483989
:10201000206888425BD9594990392068884201D1AB
:10202000102050E0564990392068884201D1102094
:1020300049E0524930392068884201D1102042E0FD
:102040004F4930392068884201D110203BE04B498C
:1020500078392068884201D1001534E04849783940
:102060002068884201D100152DE0444918392068C4
:10207000884201D1001526E041491839206888427C
:1020800001D100151FE03D4960392068884202D126
:102090004FF4801017E03A4960392068884202D135
:1020A0004FF480100FE035492068884202D14FF488
:1020B000801008E032492068884202D14FF4801035
:1020C00001E04FF080602E499439086024E12B49EB
:1020D00018312068884262D928499039206888429E
:1020E00003D1102057E0C0E228E12549903920684B
:1020F000884201D110204EE02049303920688842C2
:1021000001D1102047E01E4930392068884201D1B2
:10211000102040E0194978392068884201D1001523
:1021200039E0174978392068884201D1001532E03A
:10213000124918392068884201D100152BE0104956
:1021400018392068884201D1001524E00B49603914
:102150002068884202D14FF480101CE008496039A1
:102160002068884202D14FF4801014E003492068AF
:10217000884207D14FF480100DE00000A0600240BB
:10218000A0640240F7492068884202D14FF48010D1
:1021900001E04FF08060F34998390860BCE0F249F3
:1021A000206888425CD9F04948392068884201D1CA
:1021B000102051E0EB4990392068884201D110206D
:1021C0004AE0E94918312068884201D1102043E0F3
:1021D000E44930392068884201D110203CE0E249CE
:1021E00030392068884201D1001535E0DD49783961
:1021F0002068884201D100152EE0DB49303120688B
:10220000884201D1001527E0D64918392068884254
:1022100001D1001520E0D44918392068884202D144
:102220004FF4801018E0CF4960392068884202D10D
:102230004FF4801010E0CC4948312068884202D128
:102240004FF4801008E0C7492068884202D14FF45B
:10225000801001E04FF08060C3495839C8605BE0EE
:10226000C14948392068884201D1102051E0BD4958
:1022700090392068884201D110204AE0BA491831CB
:102280002068884201D1102043E0B64930392068E7
:10229000884201D110203CE0B3493039206888429F
:1022A00001D1001535E0AF4978392068884201D165
:1022B00000152EE0AC4930312068884201D100156C
:1022C00027E0A84918392068884201D1001520E08C
:1022D000A54918392068884202D14FF4801018E0CF
:1022E000A04960392068884202D14FF4801010E084
:1022F0009D4948312068884202D14FF4801008E09F
:1023000098492068884202D14FF4801001E04FF0D4
:1023100080609549583988602068006810F4002F63
:1023200003D1312084F835009AE12068006810F468
:10233000002F02D0412084F8350091E12068006828
:1023400010F4807F05D12068006820F00800216823
:10235000086084494839206888425CD982494839F4
:102360002068884201D1102051E07E4990392068D0
:10237000884201D110204AE07B4918312068884208
:1023800001D1102043E0774930392068884201D1DB
:1023900010203CE0744930392068884201D1001592
:1023A00035E0704978392068884201D100152EE067
:1023B0006D4930312068884201D1001527E0694914
:1023C00018392068884201D1001520E06649183983
:1023D0002068884202D14FF4801018E061496039CA
:1023E0002068884202D14FF4801010E05E494831E5
:1023F0002068884202D14FF4801008E059492068D3
:10240000884202D14FF4801001E04FF080605549BE
:102410009439086021E154496031206888425CD9D0
:10242000514948392068884201D1102051E04D4976
:1024300090392068884201D110204AE04A49183179
:102440002068884201D1102043E046493039206895
:10245000884201D110203CE043493039206888424D
:1024600001D1001535E03F4978392068884201D113
:1024700000152EE03C4930312068884201D100151A
:1024800027E0384918392068884201D1001520E03A
:10249000354918392068884202D14FF4801018E07D
:1024A000304960392068884202D14FF4801010E032
:1024B0002D4948312068884202D14FF4801008E04D
:1024C00028492068884202D14FF4801001E04FF083
:1024D0008060244998390860BFE023492068884219
:1024E00060D9214948392068884201D1102055E03F
:1024F0001C4990392068884201D110204EE01A49C9
:1025000018312068884201D1102047E01549303940
:102510002068884201D1102040E0134930392068FA
:10252000884201D1001539E00E4978392068884287
:1025300001D1001532E00C4930312068884201D1C8
:1025400000152BE0074918392068884201D1001591
:1025500024E0054918392068884207D14FF48010DB
:102560001CE00000A064024058600240F749206867
:10257000884202D14FF4801010E0F549206888426B
:1025800002D14FF4801009E0F049603120688842A0
:1025900002D14FF4801001E04FF08060EC49A03987
:1025A000C8605AE0EA4990392068884201D1102079
:1025B00050E0E64930392068884201D1102049E0D6
:1025C000E34930392068884201D1102042E0DF49D8
:1025D00030312068884201D110203BE0DC49783955
:1025E0002068884201D1001534E0D84918392068A4
:1025F000884201D100152DE0D5491839206888425C
:1026000001D1001526E0D14948312068884201D126
:1026100000151FE0CE4960392068884202D14FF48E
:10262000801017E0C9492068884202D14FF4801019
:1026300010E0C7492068884202D14FF4801009E0B9
:10264000C24960312068884202D14FF4801001E015
:102650004FF08060BE49A0398860312084F8350091
:10266000206C10B12046216C8847B8491831206889
:1026700088425CD9B5483C380068B54A903A216830
:10268000914201D1202150E0B04A303A2168914274
:1026900001D1202149E0AE4A303A2168914201D16E
:1026A000202142E0A94A30322168914201D1202103
:1026B0003BE0A74A783A2168914201D1C91434E03D
:1026C000A24A183A2168914201D1C9142DE0A04ACA
:1026D000183A2168914201D1C91426E09B4A483238
:1026E0002168914201D1C9141FE0994A603A2168DA
:1026F000914202D14FF4001117E0944A21689142AF
:1027000002D14FF4001110E0914A2168914202D1A8
:102710004FF4001109E08D4A60322168914202D1E4
:102720004FF4001101E04FF00061084023E18849B7
:102730001831206888425CD9844840380068844A4F
:10274000903A2168914201D1202150E07F4A303AED
:102750002168914201D1202149E07D4A303A216827
:10276000914201D1202142E0784A303221689142E1
:1027700001D120213BE0764A783A2168914201D18B
:10278000C91434E0714A183A2168914201D1C91440
:102790002DE06F4A183A2168914201D1C91426E010
:1027A0006A4A48322168914201D1C9141FE0684A3F
:1027B000603A2168914202D14FF4001117E0634A58
:1027C0002168914202D14FF4001110E0604A216863
:1027D000914202D14FF4001109E05C4A6032216855
:1027E000914202D14FF4001101E04FF00061084026
:1027F000C1E057494839206888425CD95448A0381C
:102800004068534A903A2168914201D1202150E01A
:102810004E4A303A2168914201D1202149E04C4A88
:10282000303A2168914201D1202142E0474A3032BA
:102830002168914201D120213BE0454A783A216844
:10284000914201D1C91434E0404A183A21689142BA
:1028500001D1C9142DE03E4A183A2168914201D1B4
:10286000C91426E0394A48322168914201D1C9147D
:102870001FE0374A603A2168914202D14FF40011BB
:1028800017E0324A2168914202D14FF4001110E062
:102890002F4A2168914202D14FF4001109E02B4ADE
:1028A00060322168914202D14FF4001101E04FF0F3
:1028B000006108405FE02648A0380068244A903A4A
:1028C0002168914201D1202154E0204A303A216808
:1028D000914201D120214DE01D4A303A21689142B8
:1028E00001D1202146E0194A30322168914201D1BC
:1028F00020213FE0164A783A2168914201D1C9145B
:1029000038E0124A183A2168914201D1C91431E0E5
:102910000F4A183A2168914201D1C9142AE00B4AA2
:1029200048322168914201D1C91423E0084A603A33
:102930002168914202D14FF400111BE0034A216843
:10294000914207D14FF4001114E0000040640240AE
:10295000A0600240F94A2168914202D14FF400116F
:1029600008E0F74A2168914202D14FF4001101E0DA
:102970004FF00061084088B32068006810F0100F25
:102980002CD02068006810F4802F74D0EC494839AE
:10299000206888425CD9E94990392068884201D191
:1029A000202051E0E64990392068884201D120205A
:1029B0004AE0E24930392068884201D1202043E0D2
:1029C000DF4930392068884201D120203CE0DB49D2
:1029D00078392068884202D1C01435E091E1D849A5
:1029E00078392068884201D1C0142DE0D3491839C4
:1029F0002068884201D1C01426E0D14918392068E6
:102A0000884201D1C0141FE0CC4960392068884257
:102A100002D14FF4001017E0C9496039206888429C
:102A200002D14FF400100FE0C4492068884202D15F
:102A30004FF4001008E0C2492068884202D14FF4E8
:102A4000001001E04FF00060BD49943908601DE1BD
:102A5000BA491831206888425CD9B8499039206851
:102A6000884201D1202051E0B54990392068884240
:102A700002D120204AE01FE1B04930392068884265
:102A800001D1202042E0AE4930392068884201D18E
:102A900020203BE0A94978392068884201D1C01440
:102AA00034E0A74978392068884201D1C0142DE06C
:102AB000A24918392068884201D1C01426E0A049F3
:102AC00018392068884201D1C0141FE09B49603941
:102AD0002068884202D14FF4001017E0984960390D
:102AE0002068884202D14FF400100FE0934920681B
:102AF000884202D14FF4001008E0914920688842D2
:102B000002D14FF4001001E04FF000608C49983979
:102B10000860BBE089494839206888425BD9874909
:102B200090392068884201D1202050E084499039B2
:102B30002068884201D1202049E08049303920684E
:102B4000884201D1202042E07D4930392068884206
:102B500001D120203BE0794978392068884201D1B1
:102B6000C01434E0764978392068884201D1C01415
:102B70002DE0724918392068884201D1C01426E03E
:102B80006F4918392068884201D1C0141FE06B4991
:102B900060392068884202D14FF4001017E068497C
:102BA00060392068884202D14FF400100FE0634979
:102BB0002068884202D14FF4001008E06049206884
:102BC000884202D14FF4001001E04FF000605B49F1
:102BD000A039C8605AE0594990392068884201D12B
:102BE000202050E0564990392068884201D12020A9
:102BF00049E0524930392068884201D1202042E022
:102C00004F4930392068884201D120203BE04B49B0
:102C100078392068884201D1C01434E048497839B5
:102C20002068884201D1C0142DE044491839206839
:102C3000884201D1C01426E04149183920688842F1
:102C400001D1C0141FE03D4960392068884202D19B
:102C50004FF4001017E03A4960392068884202D1E9
:102C60004FF400100FE035492068884202D14FF43C
:102C7000001008E032492068884202D14FF4001069
:102C800001E04FF000602D49A0398860206800689D
:102C900010F4002F05D1606C98B32046616C884712
:102CA000A7E12068006810F4002F2AD0E06B40B341
:102CB0002046E16B88479CE12068006810F4807F23
:102CC00005D12068006820F01000216808601C49C8
:102CD00048392068884260D918499039206888426C
:102CE00001D1202055E0164990392068884201D151
:102CF00020204EE0114930392068884202D120203E
:102D000047E076E10E4930392068884201D1202021
:102D10003FE00A4978392068884201D1C01438E080
:102D2000074978392068884201D1C01431E003494D
:102D300018392068884205D1C0142AE0A0600240FA
:102D4000A0640240AB492068884201D1C01420E051
:102D5000A9492068884202D14FF4001019E0A54922
:102D600048392068884202D14FF4001011E0A2498E
:102D700060312068884202D14FF4001009E09D497B
:102D800018312068884202D14FF4001001E04FF062
:102D9000006098497C3908601CE1974978312068C7
:102DA00088425BD9944930392068884201D120207B
:102DB00050E0904978392068884201D1202049E0CC
:102DC0008D4930312068884201D1202042E0894974
:102DD00018392068884201D120203BE08649183903
:102DE0002068884201D1C01434E0824960392068EB
:102DF000884201D1C0142DE07F49483120688842C3
:102E000001D1C01426E07B492068884201D1C0145A
:102E100020E079492068884202D14FF4001019E07F
:102E2000744948392068884202D14FF4001011E0FB
:102E3000714960312068884202D14FF4001009E0E6
:102E40006C4918312068884202D14FF4001001E02B
:102E50004FF00060674980390860BBE0664918316F
:102E6000206888425BD9644930392068884201D1A2
:102E7000202050E05F4978392068884201D1202025
:102E800049E05D4930312068884201D1202042E08C
:102E9000584918392068884201D120203BE0564922
:102EA00018392068884201D1C01434E05149603992
:102EB0002068884201D1C0142DE04F494831206874
:102EC000884201D1C01426E04A492068884201D1D5
:102ED000C01420E048492068884202D14FF4001015
:102EE00019E0444948392068884202D14FF4001063
:102EF00011E0414960312068884202D14FF400104E
:102F000009E03C4918312068884202D14FF4001092
:102F100001E04FF0006038494039C8605AE0364956
:102F200030392068884201D1202050E03149783979
:102F30002068884201D1202049E02F4930312068A3
:102F4000884201D1202042E02A491839206888426D
:102F500001D120203BE0284918392068884201D15E
:102F6000C01434E0234960392068884201D1C0147C
:102F70002DE0214948312068884201D1C01426E063
:102F80001C492068884201D1C01420E01A492068F9
:102F9000884202D14FF4001019E0164948392068E0
:102FA000884202D14FF4001011E0134960312068CB
:102FB000884202D14FF4001009E00E491831206810
:102FC000884202D14FF4001001E04FF000600A493E
:102FD00040398860E06CE064112084F8350000BF5F
:102FE000002084F8340000BFE06B10B12046E16B94
:102FF000884710BD886402404060024001460022BC
:1030000009B901207047486A00B100BF022081F869
:1030100035000868026817480240D1E901031843E7
:10302000CB6818430B6918434B6918438B691843E5
:10303000CB6918430B6A18430243486A042803D13A
:10304000D1E90B031843024308680260086842692B
:1030500022F00702486A0243486A042801D1886ABC
:103060000243086842610020C864012081F83500ED
:103070000020C7E73F8014F02DE9F04104460D46DB
:1030800016461F4600BF94F83400012802D10220E2
:10309000BDE8F081012084F8340000BF022084F8EC
:1030A00035002068006820F00100216808603B4678
:1030B000324629462046FDF733FA2068006840F082
:1030C0001000216808602068006840F0080021684E
:1030D00008602068006840F00400216808602068EB
:1030E000406940F08000216848612068006840F035
:1030F0000200216808602068006840F00100216833
:1031000008600020C4E7000010B50446012C30D14F
:103110001848406C90F83500012802D0154800F09E
:10312000F7FD00201449097801EB4101134A02EB35
:103130008101488001201049097801EB410102EB2F
:103140008101087100200C49097801EB410122F846
:1031500021000948007800EB400002EB8000816804
:1031600045F69172034800F0CFFF00200149496CF9
:10317000086410BDAC030020310000203C04002096
:1031800010B5044604480068204204D00248046098
:103190002046FFF7B9FF10BD143C0140F0B50246D0
:1031A0000B460025002400200021DCE0012606FA61
:1031B00001F51E6806EA0504AC426ED15E68022E77
:1031C00002D05E68122E13D1CF0802F1200656F805
:1031D00027004E07F70E0F26BE40B0434F07FF0EE5
:1031E0001E69BE403043CF0802F1200646F8270092
:1031F00010684F000326BE40B0431E7906F0030658
:103200004F00BE40304310605E68012E08D05E68FB
:10321000022E05D05E68112E02D05E68122E13D1E8
:1032200090684F000326BE40B0434F00DE68BE40AA
:1032300030439060506801268E40B0431E79C6F33B
:1032400000168E4030435060D0684F000326BE40C9
:10325000B0434F009E68BE403043D0605E6806F0C9
:103260008056B6F1805F7DD1414E366846F4804687
:103270003F4F3E603F4E8F0856F827008E07370FAE
:103280000F26BE40B0433C4EB24201D100262EE094
:103290003A4EB24202D1012629E063E0384EB242F2
:1032A00001D1022623E0374EB24201D103261EE0AF
:1032B000354EB24201D1042619E0344EB24201D15A
:1032C000052614E0324EB24201D106260FE0314EFF
:1032D000B24201D107260AE02F4EB24201D10826A0
:1032E00005E02E4EB24201D1092600E00A268F07E2
:1032F0003F0FBE4030431F4E8F0846F82700284E30
:103300003068A0435E6806F48036B6F5803F00D191
:103310002043234E3060361D3068A0435E6806F4BB
:103320000036B6F5003F00D120431D4E361D3060FB
:10333000361D3068A0435E6806F48016B6F5801F1F
:1033400000D12043164E08363060361D3068A04349
:103350005E6806F40016B6F5001F00D12043104E3B
:103360000C363060491C1029FFF420AFF0BD00007E
:103370004438024008380140000002400004024086
:1033800000080240000C02400010024000140240FD
:1033900000180240001C02400020024000240240AD
:1033A000003C0140024613690B4201D0012000E0BD
:1033B000002070470AB1018300E04183704700009C
:1033C00001480068704700000000002002480068C3
:1033D000401C0149086070470000002010B50D48EE
:1033E000006840F400700B4908600846006840F42B
:1033F000806008600846006840F480700860032020
:1034000000F06AF80F2000F007F800F017F800202D
:1034100010BD0000003C024070B5044600F0D2F937
:103420004FF47A71B0FBF1F5284601F0DDF8002287
:103430002146501E00F011F8002070BD704700BFFB
:1034400000F01F020121914042094FF0E02303EBFD
:103450008202C2F8001100BF70472DE9F05F80467C
:103460000D461646002701F0B7FB074639462A46A7
:10347000334601F00700C0F1070ABAF1040F02D980
:103480004FF0040A01E0C0F1070AD14600F1040A36
:10349000BAF1070F02D24FF0000A01E0A0F1030ACF
:1034A000D4464FF0010A0AFA09FAAAF1010A0AEA17
:1034B000020A0AFA0CFA4FF0010B0BFA0CFBABF103
:1034C000010B0BEA030B4AEA0B042146404601F0CC
:1034D0008BFBBDE8F09F000000BF00F00702064B29
:1034E00019684FF6FF031940044B0B4343EA0221CE
:1034F000014B196000BF70470CED00E00000FA05B9
:1035000010B500241948006840F080501749086041
:10351000012017490864FFF753FF044607E0FFF74F
:103520004FFF001BB0F57A7F01D9032010BD114871
:10353000406800F48030B0F5803FF0D101200C49A4
:103540004864FFF73DFF044607E0FFF739FF001B23
:10355000B0F57A7F01D90320E8E70648406800F417
:103560000030B0F5003FF0D10020DFE740380240E6
:1035700000000E420070004070B504460D46002663
:103580008E48006800F00F00A8427CD28B490D7075
:103590000846006800F00F00A84201D0012070BD6D
:1035A000207800F00200022807D18548006820F04A
:1035B000F000A168084382490860207810F0010FEC
:1035C0003BD06068012807D17D4808380068C0F307
:1035D0004040A0B90120E2E76068022807D178489E
:1035E00008380068C0F3406048B90120D7E7744844
:1035F00008380068C0F3400008B90120CFE77048E0
:10360000006820F00300616808436D490860FFF717
:10361000D7FE06466068012810D108E0FFF7D0FE0B
:10362000801B41F28831884201D90320B7E7644802
:10363000006800F00C000428F0D19FE060680228C8
:1036400010D108E0FFF7BCFE801B41F288318842B0
:1036500001D90320A3E75A48006800F00C000828AD
:10366000F0D18BE009E0FFF7ABFE801B41F288311F
:10367000884202D9032092E705E05148006810F023
:103680000C0FF0D17AE0207800F00200022807D178
:103690004B48006820F0F000A168084348490860E2
:1036A000207810F0010F5FD06068012807D14448EE
:1036B00008380068C0F34040A0B901206FE7606897
:1036C000022807D13E4808380068C0F3406048B976
:1036D000012064E73A4808380068C0F3400008B9A0
:1036E00001205CE73648006820F003006168084369
:1036F00033490860FFF764FE06466068012810D170
:1037000008E0FFF75DFE801B41F28831884201D955
:10371000032044E72A48006800F00C000428F0D198
:1037200022E06068022810D108E0FFF749FE801B04
:1037300041F28831884201D9032030E720480068EF
:1037400000F00C000828F0D10EE008E0FFF738FE8A
:10375000801B41F28831884201D903201FE71848B5
:10376000006810F00C0FF1D114490D700846006884
:1037700000F00F00A84201D0012010E7207800F0EF
:103780000400042807D10E48006820F4E050E168E6
:1037900008430B490860207800F00800082808D189
:1037A0000748006820F46040216940EAC1000449EC
:1037B00008600F20FFF730FE0020F0E6003C0240DA
:1037C0000838024000B500F045F80949096801F0E1
:1037D000F001F02292FAA2F2B2FA82F2D140054A46
:1037E000515CC840044908600846006800BD0000FC
:1037F00008380240265800080400002000B5FFF7F2
:10380000E1FF0749096801F4E0514FF4E05292FAF0
:10381000A2F2B2FA82F2D140024A515CC84000BD25
:10382000083802402658000800B5FFF7CBFF0749CB
:10383000096801F460414FF4604292FAA2F2B2FAD0
:1038400082F2D140024A515CC84000BD08380240B3
:103850002658000870B500210022002300202B4CC0
:10386000246814F00C0404D0042C04D0082C48D193
:1038700003E0274847E0274845E0244C241F2468FC
:1038800004F03F01214C241F246804F480044FF409
:10389000800595FAA5F5B5FA85F5EC4010D01D4CDC
:1038A000B4FBF1F5194C241F246847F6C076344068
:1038B00096FAA6F6B6FA86F6F44005FB04F20FE097
:1038C000134CB4FBF1F5114C241F246847F6C07665
:1038D000344096FAA6F6B6FA86F6F44005FB04F2F2
:1038E0000A4C241F246804F440344FF4403595FA00
:1038F000A5F5B5FA85F5EC40641C6300B2FBF3F066
:1039000001E0034800BF00BF70BD0000083802405E
:103910000024F40000127A0070B5044600252078D7
:1039200010F0010F67D0F648006800F00C00042882
:103930000DD0F348006800F00C00082813D1F048BF
:10394000001F006800F48000B0F5800F0BD1EC4838
:1039500008380068C0F3404000284CD06068012857
:1039600049D0012070BD0020E549891F0870FFF78C
:1039700027FD054608E0FFF723FD401B41F2883193
:10398000884201D90320EDE7DD4808380068C0F31C
:1039900040400028EFD12079D949891F087060681C
:1039A000012814D1FFF70CFD054608E0FFF708FDDC
:1039B000401B41F28831884201D90320D2E7D04828
:1039C00008380068C0F340400028EFD013E0FFF74C
:1039D000F7FC054608E0FFF7F3FC401B41F2883195
:1039E000884201D90320BDE7C54808380068C0F304
:1039F00040400028EFD1207800F00200022869D171
:103A0000BF48006810F00C0F0BD0BD48006800F0F4
:103A10000C00082821D1BA48001F006810F4800F5C
:103A20001BD1B74808380068C0F3400020B1E068F7
:103A3000012801D0012095E7B1480838006820F03E
:103A4000F800F82292FAA2F2B2FA82F221699140C9
:103A50000843AB49083908603CE0E06828B301201E
:103A6000A8490860FFF7ACFC054606E0FFF7A8FC94
:103A7000401B642801D9032074E7A1480838006876
:103A8000C0F340000028F1D09D480838006820F0BD
:103A9000F800F82292FAA2F2B2FA82F22169914079
:103AA000084397490839086014E0002095490860E8
:103AB000FFF786FC054606E0FFF782FC401B642802
:103AC00001D903204EE78E4808380068C0F3400053
:103AD0000028F1D1207800F0080008282CD1606976
:103AE000A8B1012088490860FFF76AFC054606E096
:103AF000FFF766FC401B642801D9032032E78048A9
:103B00006C300068C0F340000028F1D014E00020C1
:103B10007D490860FFF754FC054606E0FFF750FCBE
:103B2000401B642801D903201CE775486C300068ED
:103B3000C0F340000028F1D1207800F004000428F0
:103B400065D16F483830006840F080506C4938319A
:103B500008606E48006840F480706C490860FFF7A8
:103B60002FFC054606E0FFF72BFC401B642801D91B
:103B70000320F7E66548006810F4807FF3D000204A
:103B80005F4968310870FFF71BFC054608E0FFF746
:103B900017FC401B41F28831884201D90320E1E63D
:103BA000574868300068C0F340000028EFD1207A01
:103BB000534968310870A068012814D1FFF700FC50
:103BC000054608E0FFF7FCFB401B41F288318842C4
:103BD00001D90320C6E64A4868300068C0F34000B7
:103BE0000028EFD013E0FFF7EBFB054608E0FFF7F6
:103BF000E7FB401B41F28831884201D90320B1E63E
:103C00003F4868300068C0F340000028EFD1A06949
:103C1000F0B33B48006800F00C0008286BD0A069A6
:103C2000022852D1002037490866FFF7C9FB054634
:103C300006E0FFF7C5FB401B642801D9032091E68D
:103C40002F4808380068C0F340600028F1D1206A8E
:103C500040F0005047F6C07292FAA2F2B2FA82F235
:103C6000616A914008430122A16AC2EB51014FF4FD
:103C7000403292FAA2F2B2FA82F291400843E1692C
:103C800008434FF0706292FAA2F2B2FA82F200E0B8
:103C900033E0E16A914008431949091F0860012097
:103CA00018490866FFF78CFB054606E0FFF788FB1E
:103CB000401B642801D9032054E6114808380068E5
:103CC000C0F340600028F1D017E000200D490866DD
:103CD000FFF776FB054606E0FFF772FB401B642802
:103CE00001D903203EE6064808380068C0F340606A
:103CF0000028F1D101E0012034E6002032E6000086
:103D00000838024000004742800E474200700040E1
:103D100010B50446206C10B1206CFCF725FE606CD9
:103D200010B1606CFCF720FE2068406820F00200B3
:103D3000216848602068406820F0010021684860E0
:103D4000012084F85100002010BD000010B5044689
:103D50000B492068884211D100BF2068C0682068E4
:103D6000806800BF2046FFF7D3FF0020054909788F
:103D700001EB4101044A22F8210010BDFCF7E6FBEB
:103D800000300140310000203C040020014691F841
:103D9000510070472DE9F041044600250026002718
:103DA0002068806800F0010520684068C0F3801634
:103DB00020688068C0F3801735B12EB127B920463E
:103DC000A16C8847BDE8F08120688068C0F3400599
:103DD00020684068C0F3C01625B11EB12046E16CD2
:103DE0008847EFE720684068C0F3401000284ED0B5
:103DF00020688068C0F3001048B194F8520040F089
:103E0000020084F852006FF010002168886020687A
:103E10008068C0F3401078B194F8520040F001007F
:103E200084F8520000BF206880682068006820F095
:103E300040002168086000BF20688068C0F38010DF
:103E400078B194F8510012280BD094F8520040F049
:103E5000040084F8520000BF2068C06820688068B1
:103E600000BF20688068C0F3002038B194F8520089
:103E700040F0080084F852002068806894F85200EE
:103E800028B1012084F851002046FFF75FFF00BFF2
:103E900098E710B504460CB9012010BD94F8510004
:103EA00010B9204600F038F8022084F8510020684C
:103EB000006820F0400021680860D4E9010108434F
:103EC000E16808432169084361690843218B01F4D3
:103ED00000710843E1690843216A0843A16A084365
:103EE000216808600421A06901EA1040616A084362
:103EF000216848602168E06A08612068C06920F490
:103F000000602168C861002084F85200012084F814
:103F100051000020C1E7000010B586B00446714989
:103F2000206888427ED17048006840F010006E49D9
:103F300008606D481430006840F400506A4914313C
:103F400008606948006840F48000674908606420A0
:103F5000019002200290012003900220049005208D
:103F6000059001A96148FFF719F91020019001207F
:103F7000029001A95D48FFF711F9012210215B4869
:103F8000FFF718FA5A485B4908604FF00060486034
:103F90004021584881600021C1604FF48061016177
:103FA000002141618161C1614FF400310162002152
:103FB0004162032181620021C1620163FFF71EF8A3
:103FC00000BF4C482064846300BF494818384A4900
:103FD0000860C0054860002147488160C1604FF417
:103FE00080610161002141618161C1614FF48031D3
:103FF000016200214162032181620021C1620163EB
:10400000FEF7FCFF00BF3C486064846300BF0122F0
:1040100000213920FFF721FA3920FFF710FA00229A
:10402000114600E006E03820FFF717FA3820FFF7C6
:1040300006FA55E031492068884251D12A48006883
:1040400040F001002849086027481430006840F417
:104050008050254914310860F02001900220029020
:1040600001200390022004900520059001A9244816
:10407000FFF794F8012202212320FFF7EEF9232015
:10408000FFF7DDF91A4818301E4908604FF0C0608C
:10409000486000211B488160C1604FF4806101616C
:1040A00049004161890081610021C1614FF4003103
:1040B00001620421416201218162C905C1620021BE
:1040C0000163FEF79BFF00BF0E486064846300BF7E
:1040D000002202213A20FFF7C0F93A20FFF7AFF99A
:1040E00006B010BD003401403038024000100240DC
:1040F000286402403C0000208C0000200030014079
:1041000000000240DC0000202DE9F04104460E468C
:10411000154694F85100012876D106B115B9012051
:10412000BDE8F08100BF94F85000012801D10220C1
:10413000F6E7012084F8500000BF222084F85100E7
:10414000002084F85200A663A587E587A064E06498
:10415000A086E086A068B0F5004F06D12068006810
:1041600020F480402168086011E0A06878B9606898
:10417000B0F5827F0BD100BF002084F8500000BF53
:104180002B4632463146204600F0AEF8C8E7A06A1A
:10419000B0F5005F0DD100BF2068006820F400502A
:1041A000216808602068006840F4005021680860B9
:1041B00000BF1648616C08641548616CC8631548F7
:1041C000616C8864E38F276807F10C01A26B606C57
:1041D000FEF752FF2068406840F001002168486007
:1041E00000BF002084F8500000BF2068006800F085
:1041F0004000402805D02068006840F04000216859
:10420000086000208CE7FFE7022089E77B4D00086B
:10421000A54D0008554D000810B504462B492068EF
:10422000884252D12A48007800EB4000294901EB2E
:1042300080004079012848D12748007800EB4000F1
:1042400001EB8000806800882349097801EB410177
:10425000204A22F821002048007800EB4000114657
:1042600031F8200040B900201B49097801EB4101D9
:1042700002EB8101087108E003201749097801EB7E
:104280004101144A02EB81010871002010490978AC
:1042900001EB41010F4A02EB810108710C490978D9
:1042A00001EB410102EB8101487100F01FFF00F0BA
:1042B0002DFF0023062219460848FCF7C7F8002204
:1042C0004FF48051064800F0A4FC10BD00300140BE
:1042D000300000203C040020310000205803002062
:1042E00000000240704700002DE9F04104460E46F0
:1042F00017461D464FF0000894F85180B8F1010FA1
:1043000009D06068B0F5827F7ED1A0680028FBD11B
:10431000B8F1220FF8D10EB107B115B90120BDE8EF
:10432000F08100BF94F85000012801D10220F6E787
:10433000012084F8500000BF94F85100222802D0D8
:10434000322084F85100002084F852002663A586AC
:10435000E586A763A587E587A064E064A06AB0F559
:10436000005F0DD100BF2068006820F40050216874
:1043700008602068006840F400502168086000BFB1
:1043800094F85100222806D12448616C086424481E
:10439000616CC86305E02348616C08642248616C65
:1043A000C8632248616C8864E38FD4F800C00CF1C4
:1043B0000C01A26B606CFEF75FFE2068406840F065
:1043C0000100216848600020216CC8631748216CF7
:1043D0008864E38ED4F800C00CF10C02216B206CD1
:1043E000FEF74AFE2068006800F04000402805D033
:1043F0002068006840F0400021680860206840683C
:1044000040F00200216800E006E0486000BF0020A4
:1044100084F8500000BF82E7022080E77B4D00084F
:10442000A54D0008974D0008FB4E0008554D0008AB
:104430002DE9F04104460E46154694F85100012836
:1044400062D106B115B90120BDE8F08100BF94F832
:104450005000012801D10220F6E7012084F8500025
:1044600000BF122084F85100002084F85200266317
:10447000A586E586E064A064A087E087A068B0F523
:10448000004F05D12068006840F480402168086032
:10449000A06AB0F5005F0DD100BF2068006820F46D
:1044A0000050216808602068006840F400502168CE
:1044B000086000BF1548216C08641548216CC8636A
:1044C0001448216C8864E38E276807F10C02216B85
:1044D000206CFEF7D1FD2068406840F002002168A2
:1044E000486000BF002084F8500000BF20680068CA
:1044F00000F04000402805D02068006840F04000EF
:104500002168086000209FE702209DE7894D000890
:104510007B4E0008554D000810B50446044920683C
:10452000884204D1012210210248FEF743FF10BD4A
:1045300000340140001002407047000010B50446EE
:1045400004492068884204D1012210210248FEF764
:1045500031FF10BD0034014000100240704770B5BB
:1045600004460E4615460CB9012070BD94F8410072
:1045700010B9204600F01CF804F108012068FCF78F
:1045800033F83146A2682068FCF764F82946236BAB
:10459000D4E90102FCF706F8A168206850F8210070
:1045A00040F00100A268216841F822000020DCE709
:1045B000704710B5044600BF94F84000012801D1AF
:1045C000022010BD012084F8400000BFA1682068CF
:1045D000FCF76AF8012084F8410000BF002084F84D
:1045E000400000BF00BFECE770B504462546681EDA
:1045F000B0F1807F01D301200FE0681E4FF0E02171
:1046000048610F214FF0FF3000F0EEFA00204FF02C
:10461000E021886107200861002070BD7047704765
:1046200010B504460CB9012010BD94F8390010B93A
:10463000204600F00DF8022084F83900211D206882
:1046400000F0F6FD012084F839000020ECE70000BE
:1046500010B504460748006840F0020005490860AC
:10466000012211461D20FEF7F8FE1D20FEF7E7FE91
:1046700010BD00004038024001460868C06840F0A4
:1046800001000A68D0600868006840F001000A680C
:10469000106000207047704710B50446206800691C
:1046A000C0F34000D8B12068C068C0F34000B0B18A
:1046B0006FF002002168086101202076206880697F
:1046C00010F0030F03D02046FFF7E5FF05E020467A
:1046D00000F0ADF8204600F0ABF80020207620680E
:1046E0000069C0F38000D8B12068C068C0F38000C2
:1046F000B0B16FF0040021680861022020762068C4
:10470000806910F4407F03D02046FFF7C4FF05E026
:10471000204600F08CF8204600F08AF80020207631
:1047200020680069C0F3C000D8B12068C068C0F339
:10473000C000B0B16FF00800216808610420207645
:104740002068C06910F0030F03D02046FFF7A3FFD5
:1047500005E0204600F06BF8204600F069F80020E4
:10476000207620680069C0F30010D8B12068C068C6
:10477000C0F30010B0B16FF010002168086108208C
:1047800020762068C06910F4407F03D02046FFF7F0
:1047900082FF05E0204600F04AF8204600F048F885
:1047A000002020762068006910F0010F0BD02068EF
:1047B000C06810F0010F06D06FF001002168086199
:1047C000204600F037F820680069C0F3C01058B1E7
:1047D0002068C068C0F3C01030B16FF0800021685D
:1047E00008612046FFF71AFF20680069C0F38010B7
:1047F00058B12068C068C0F3801030B16FF040003D
:1048000021680861204600F09DF820680069C0F327
:10481000401058B12068C068C0F3401030B16FF04C
:104820002000216808612046FFF7F9FE10BD70479F
:10483000704700001FB504463D48007800EB40007B
:104840003C4901EB80000079032800D01FBD012204
:1048500051033948FEF7AEFD3548007800EB4000C3
:10486000344901EB80004288314801786846FCF702
:1048700047F8DDE90001CDE90201BDF80830042266
:1048800000212E48FBF7E2FDBDF80A300522002189
:104890002A48FBF7DBFD9DF80C00FF2101EB00200F
:1048A00083B2062200212548FBF7D0FD00224FF4F9
:1048B0008051234800F0ADF91D49097801EB410111
:1048C0001C4A02EB8101881C4988491C0180184858
:1048D000007800EB4000114601EB8000408814494D
:1048E000097801EB410132F82110884217DB1248A8
:1048F0001430006880F480400F49143108600020B3
:104900000B49097801EB410102EB8101488001204C
:104910000749097801EB410102EB8101487100224E
:104920004FF400510448FEF745FD00BF8EE700003C
:10493000300000203C040020001C024058030020EE
:10494000000002407047FBF701FE014691F8390074
:10495000704710B504460CB9012010BDA06900B124
:1049600000E000BF94F8390010B9204600F026F8A6
:10497000022084F839002068C06820F400502168C3
:10498000C860204600F05AFD2068006920F490407D
:10499000216808612068406920F02A002168486188
:1049A0002068C06840F400502168C860002084F886
:1049B0003A00012084F839000020CEE710B586B017
:1049C00004462748006840F0010025490860244853
:1049D0001430006840F0100021491431086020486C
:1049E000006840F480001E4908604FF4C0600190E8
:1049F00002200290002003900220049007200590DE
:104A000001A91848FEF7CAFB1748184908604FF07B
:104A1000006048604021154881600021C1604FF46A
:104A200080610161002141618161C1610162416276
:104A3000032181624FF40001C16289100163FEF716
:104A4000DDFA00BF09482063846300BF0122002112
:104A50004620FEF702FD4620FEF7F1FC06B010BD31
:104A60003038024000000240B8640240CC0100200F
:104A7000F7B504461546002794F83970012F01D088
:104A8000222F3ED1019800B10DB90120FEBD00BF1B
:104A900094F83800012801D10220F7E7012084F8BA
:104AA000380000BF01982062A584E584002084F8C6
:104AB0003A0094F83900222803D1322084F83900D2
:104AC00002E0122084F839000F48216BC8630F48B8
:104AD000216B08640E48216B886401AE23681A1D9F
:104AE00031682B46206BFEF7C7FA2068406940F01A
:104AF00080002168486100BF002084F8380000BFB2
:104B0000C4E70220C2E700008F530008F3530008F7
:104B10006553000810B504460648007848B10548BA
:104B20000278054801682046FFF7A2FF00200149EE
:104B3000087010BD2C00002034000020704700BF1A
:104B4000FEE7000010B5FEF749FC00F0F5FAFBF7B0
:104B500095FE012280211248FEF72CFC00E000BFE8
:104B60004FF400510F48FEF71DFC0028F7D000E07D
:104B700000BF4FF400510B48FEF714FC0128F7D09A
:104B800000F0B2F8FBF79AFDFBF7EEFB00F05EF8E1
:104B900000F0C0FB242104A000F032FC002010BD76
:104BA00000040240001C0240436F6E74726F6C6C14
:104BB000657220496E697469616C697365642C2043
:104BC00072756E6E696E672E2E2E0D0A0000000043
:104BD00000BFFEE77047000002480068C0F30220F3
:104BE000704700000CED00E010B5002807DA0A0756
:104BF000140E054A00F00F031B1FD45403E00A07EC
:104C0000130E024A135410BD18ED00E000E400E05A
:104C1000704770B505460E461446012C0AD1314640
:104C20002846FEF7C7FB00BF002231462846FEF7A4
:104C3000C1FB0AE0002231462846FEF7BBFB00BF5D
:104C4000012231462846FEF7B5FB70BD10B520485D
:104C5000006840F001001E4908604FF487701D494C
:104C60000860012048600320C8601B48FEF796FAE0
:104C700001201849086019484860002088601648DB
:104C8000FEF78CFA002203210620FEF7E6FB062041
:104C9000FEF7D5FB12481349086000204860002148
:104CA000104881604FF40061C160002101614161E1
:104CB00081611821C1610021016241628162072185
:104CC000C162FFF7E6F808B1FBF740FC10BD000039
:104CD000303802406C020020000002400000311019
:104CE00000300140AC03002010B50C480C490860AE
:104CF0004FF4E1304860002109488160C1600161E2
:104D0000816108214161FFF724FE08B1FBF71EFC19
:104D10001D2104A000F074FB10BD00000010014034
:104D2000000400201B5B324A1B5B481B5B33326D67
:104D3000496E697469616C6973696E672E2E2E0DF8
:104D40000A00000010B50248FFF724F810BD00006B
:104D5000AC03002070B50546AC6B002024F8360F7C
:104D600020810120E076207F40F010002077A4F120
:104D700036042046FEF7EAFF70BD70B50446A56B09
:104D80002846FFF7AFFA70BD70B50446A56B2846FC
:104D9000FFF7D2FB70BD70B50446A56B2846FFF740
:104DA000DDFB70BD38B50546AC6B2868006810F4B3
:104DB000807F5ED16068B0F5827F0DD1A068B0F5CC
:104DC000004F03D0A068B0F5806F05D1206800685F
:104DD00020F04000216808602068406820F0010051
:104DE000216848602068406820F00200216848601F
:104DF0000020E087012084F85100A06AB0F5005F30
:104E00002CD10A2300220121204600F0E4F828B129
:104E100094F8520040F0200084F852002068C068E6
:104E200080B200900A2301221146204600F0D3F8F8
:104E300028B194F8520040F0200084F85200206815
:104E40008068C0F3001048B194F8520040F00200AE
:104E500084F852006FF010002168886094F85200C6
:104E600018B12046FEF772FF06E02046FFF7D4F99E
:104E700002E02046FFF7D0F938BD70B50546AC6BAF
:104E80002868006810F4807F24D10A2300220221C0
:104E9000204600F0A0F828B194F8520040F020001D
:104EA00084F852002068406820F0020021684860C1
:104EB0000A2301228021204600F08DF828B194F8C1
:104EC000520040F0200084F852000020E0860120CB
:104ED00084F85100A06828B900BF2068C068206825
:104EE000806800BF94F8520018B12046FEF72EFFEC
:104EF00002E02046FFF710FB70BD38B50546AC6BED
:104F00002868006810F4807F61D1A06AB0F5005F66
:104F100026D10A2301221146204600F05CF860B930
:104F20000A2300220121204600F055F828B194F808
:104F3000520040F0200084F852002068C06880B21F
:104F4000009020688068C0F3001048B194F85200C7
:104F500040F0020084F852006FF010002168886071
:104F60000A2300220221204600F035F828B194F8E7
:104F7000520040F0200084F852002068406820F081
:104F80000200216848600A2301228021204600F0A7
:104F900022F828B194F8520040F0200084F8520022
:104FA0002068406820F00100216848600020E08609
:104FB000E087012084F8510094F8520018B120468F
:104FC000FEF7C4FE06E02046FFF7B8FA02E02046EE
:104FD000FFF7B4FA38BD2DE9F04104460E461746F6
:104FE0001D464FF00008FEF7EBF98046002F3DD13B
:104FF00031E0681C2FD02DB1FEF7E2F9A0EB0800DC
:10500000A84228D92068406820F0E0002168486064
:105010002068006820F0400021680860A06AB0F5B0
:10502000005F0DD100BF2068006820F400502168A7
:1050300008602068006840F400502168086000BFE4
:10504000012084F8510000BF002084F8500000BF08
:105050000320BDE8F081206880683040B04201D173
:10506000012000E000200028C3D03BE030E0681CB5
:105070002ED02DB1FEF7A4F9A0EB0800A84227D945
:105080002068406820F0E0002168486020680068DF
:1050900020F0400021680860A06AB0F5005F0DD1E3
:1050A00000BF2068006820F4005021680860206874
:1050B000006840F400502168086000BF012084F8B7
:1050C000510000BF002084F8500000BF0320C0E75B
:1050D000206880683040B04201D1012000E000200B
:1050E0000028C4D10020B4E77047000006480078CB
:1050F00018B901200449087002E000200249087034
:105100000148007870470000300000200648007811
:1051100018B901200449087002E000200249087013
:105120000248007870470000310000203000002065
:1051300010B5FEF74BF910BD00B591B01D480068E1
:1051400040F080501B4908601B48006840F4404014
:105150001949086001200090019002200690410545
:105160000791082108914FF4B471099102210A9125
:1051700007210B916846FEF7CFFB08B1FBF7E6F974
:10518000FEF7BEF908B1FBF7E1F90F200C90022001
:105190000D9000200E904FF4A0500F904FF48050CF
:1051A000109005210CA8FEF7E7F908B1FBF7CEF93E
:1051B00011B000BD40380240007000401448006843
:1051C00040F47000124908601248006840F0010085
:1051D0001049086000200F49083108600D48006838
:1051E0000D4908400B4908600C48091D0860081F5C
:1051F000006820F48020091F0860002005490C3158
:1052000008604FF000600249803908607047000074
:1052100088ED00E000380240FFFFF6FE1030002469
:1052200010B50248FFF738FA10BD00001C0300203B
:10523000002202682C4B98420ED0B0F1804F0BD068
:105240002A4B984208D02A4B984205D0294B9842C5
:1052500002D0294B984201D1012300E000231BB169
:1052600022F070024B681A431F4B984220D0B0F1D5
:10527000804F1DD01D4B98421AD01D4B984217D01D
:105280001C4B984214D01C4B984211D01B4B984297
:105290000ED01B4B98420BD01A4B984208D01A4B99
:1052A000984205D0194B984202D0194B984201D12F
:1052B000012300E000231BB122F44072CB681A43A3
:1052C00002608B68C3620B688362074B984202D00E
:1052D000094B984201D1012300E000230BB10B6977
:1052E0000363012343617047000001400004004054
:1052F00000080040000C0040000401400040014054
:10530000004401400048014000180040001C0040DB
:105310000020004010B510481049086001210F48D6
:10532000C1600F480068800847F23051B0FBF1F0CF
:10533000401E0A4948600021084801618160FFF76A
:105340006FF908B1FBF702F90448FFF795F908B1C6
:10535000FBF7FCF810BD0000000400401C03002017
:105360000400002070B50546AC6B002004F1260453
:10537000208120804FF00100E074207D40F010007B
:105380002075A4F126042046FFF7DDFA70BD70B544
:105390000546AC6B2868006810F4807F25D100209A
:1053A000E0842068406920F080002168486145F26F
:1053B000F05300224021204600F054F930B1032080
:1053C00084F839002046FFF7BEFA11E094F839005E
:1053D000322803D1222084F8390002E0012084F829
:1053E00039002046FFF796FB02E02046FFF792FBCC
:1053F00070BD70B50446A56B2846FFF79FFB70BDD6
:1054000070B504460D460A48FFF79FFA012804D0FC
:10541000084804600848057070BD2A4621460448C3
:10542000FFF726FB08B1FBF791F800BFF4E7000097
:1054300000040020340000202C0000202DE9F04161
:1054400004460025A06900B100BF2068056925F465
:105450004055E0680543206805612068C56849F249
:105460000C6085432169A068084361690843E169CC
:10547000084305432068C5602068456925F44075E8
:10548000A069054320684561E069B0F5004F72D11D
:1054900072492068884203D071492068884234D11B
:1054A000FEF7C2F900EBC00101EB00106168490092
:1054B000B0FBF1F06421B0FBF1F6FEF7B5F900EBBB
:1054C000C00101EB001061684900B0FBF1F7FEF785
:1054D000ABF900EBC00101EB001061684900B0FBC3
:1054E000F1F06421B0FBF1F000EBC00101EB001022
:1054F000A7EB8000322101EB00106421B0FBF1F03A
:1055000066F31F1021688860A6E0FEF777F900EBCC
:10551000C00101EB001061684900B0FBF1F06421AB
:10552000B0FBF1F6FEF76AF900EBC00101EB0010E9
:1055300061684900B0FBF1F7FEF760F900EBC001CC
:1055400001EB001061684900B0FBF1F06421B0FB91
:10555000F1F000EBC00101EB0010A7EB800032215D
:1055600001EB00106421B0FBF1F066F31F1021681D
:10557000886071E0FFE739492068884203D03849E4
:105580002068884234D1FEF74FF900EBC00101EBEF
:10559000001061688900B0FBF1F06421B0FBF1F606
:1055A000FEF742F900EBC00101EB001061688900D1
:1055B000B0FBF1F7FEF738F900EBC00101EB00108A
:1055C00061688900B0FBF1F06421B0FBF1F000EB01
:1055D000C00101EB0010A7EB8000322101EB0010AD
:1055E0006421B0FBF1F066F31F102168886033E09E
:1055F000FEF704F900EBC00101EB001061688900BF
:10560000B0FBF1F06421B0FBF1F6FEF7F7F800EB28
:10561000C00101EB001061688900B0FBF1F7FEF7F3
:10562000EDF800EBC00101EB001061688900B0FBF0
:10563000F1F06421B0FBF1F000EBC00101EB0010D0
:10564000A7EB8000322101EB00106421B0FBF1F0E8
:1056500066F31F1021688860BDE8F08100100140EA
:10566000001401402DE9F04104460E4617461D4640
:105670004FF00008FDF7A4FE80469FBB2BE0681C9E
:1056800029D02DB1FDF79CFEA0EB0800A84222D93D
:105690002068C06820F080002168C8602068C06869
:1056A00020F020002168C8602068C06820F4807065
:1056B0002168C8602068406920F0010021684861C5
:1056C000012084F8390000BF002084F8380000BFB2
:1056D0000320BDE8F081206800683040B04202D16C
:1056E000012001E003E000200028C8D035E02AE0D6
:1056F000681C28D02DB1FDF763FEA0EB0800A8427E
:1057000021D92068C06820F080002168C860206826
:10571000C06820F020002168C8602068C06820F4BC
:1057200080702168C8602068406920F0010021680D
:105730004861012084F8390000BF002084F8380057
:1057400000BF0320C5E7206800683040B04201D1A7
:10575000012000E000200028CAD10020B9E700BFE6
:10576000FEE700000024FFF7EDF90020254908714D
:105770000021244801744FF0D0402249886022491A
:10578000204841610020214908700120204908700B
:10579000097801EB41011B4A02EB810148710321A9
:1057A0001046017400201A49097801EB410102EB0F
:1057B0008101487140F2C23011468881144909784C
:1057C00001EB410102EB81018968086000BF0DE037
:1057D0001048015D0E48007800EB4000094A02EBDA
:1057E00080008068801C0151601C84B241F28C6092
:1057F0008442EDDB002280210748FDF7DBFD00E05D
:1058000000BFFDE73C0400200000046831000020D8
:105810003000002036580008000402404FF040706D
:10582000E1EE100A704700000000010203040102CB
:10583000030406070809000023905DE900FF239098
:105840005DE900FF16915DE900FF5A925DE900FFF6
:105850009E935DE900FF9194FFE900FF3395A1EA73
:1058600000FFD59543EB00FF7796E5EB00FF199716
:10587000D8EC00FF19971CEE00FF199760EF00FFAE
:105880001997A4F000FF1997E8F100FF19972CF37E
:1058900000FF199770F400FF1997B4F500FF1997EE
:1058A000F8F600FF19973CF800FF199780F900FF00
:1058B0001997C4FA00FF199708FC00FF19974CFDCF
:1058C00000FF199790FE00FF1997D4FF00FF19976A
:1058D000180100FF19975C0200FF1997A00300FF51
:1058E0001997E40400FF1997280600FF19976C0721
:1058F00000FF1997B00800FF0C98520900FF50995B
:10590000520900FF949A520900FFD89B520900FFE8
:105910001C9D520900FF609E520900FFA49F52097E
:1059200000FFE8A0520900FF2CA2520900FF70A35B
:10593000520900FFB4A4520900FFF8A5520900FF64
:105940003CA7520900FF80A8520900FFC4A95209D0
:1059500000FF08AB520900FF4CAC520900FF90ADAC
:10596000520900FFD4AE520900FF18B0520900FFDF
:105970005CB1520900FFA0B2520900FFE4B3A309D1
:1059800000FFD7B4F40900FF79B5960A00FF6CB6A2
:10599000E70A00FFBDB6DA0B00FF5FB77C0C00FF23
:1059A000B0B7C00D00FFB0B7040F00FF5FB74810DD
:1059B00000FF0EB73B1100FF6CB6DD1100FFCAB54A
:1059C0007F1200FF28B5211300FF86B4C31300FF28
:1059D00093B3141400FF4FB2141400FF0BB114144E
:1059E00000FFC7AF141400FF83AE141400FF3FADD7
:1059F000141400FFFBAB141400FFB7AA141400FF2B
:105A000073A9141400FF2FA8141400FFEBA614149C
:105A100000FFA7A5141400FF63A4141400FF1FA324
:105A2000141400FFDBA1141400FF97A0141400FF4E
:105A3000539F141400FF0F9E141400FFCB9C1414EA
:105A400000FF879B141400FF439A141400FFFF9873
:105A5000141400FFBB97141400FF7796141400FF72
:105A60003395141400FFEF93141400FFAB92141439
:105A700000FF6791141400FF2390C31300FF308FC1
:105A8000721300FF8E8ED01200FFEC8D2E1200FFDD
:105A90004A8D8C1100FFA88CEA1000FF578CA60FCE
:105AA00000FF578C620E00FF578C1E0D00FF578CB5
:105AB000DA0B00FF578C960A00FF578C520900FF43
:105AC000578C0E0800FF578CCA0600FF578C8605BE
:105AD00000FF578C420400FF578CFE0200FF578CDA
